{
  "contractName": "Relieth",
  "abi": [
    {
      "constant": false,
      "inputs": [
        {
          "name": "_name",
          "type": "string"
        },
        {
          "name": "_description",
          "type": "string"
        },
        {
          "name": "_location",
          "type": "string"
        },
        {
          "name": "_beneficiary",
          "type": "address"
        }
      ],
      "name": "createDisaster",
      "outputs": [
        {
          "name": "disaster",
          "type": "address"
        }
      ],
      "payable": false,
      "stateMutability": "nonpayable",
      "type": "function"
    },
    {
      "constant": true,
      "inputs": [],
      "name": "getDisasters",
      "outputs": [
        {
          "name": "",
          "type": "address[]"
        }
      ],
      "payable": false,
      "stateMutability": "view",
      "type": "function"
    }
  ],
  "bytecode": "0x608060405234801561001057600080fd5b50611485806100206000396000f3fe608060405234801561001057600080fd5b50600436106100365760003560e01c8063e340425c1461003b578063e9a33b8114610093575b600080fd5b61004361026e565b60408051602080825283518183015283519192839290830191858101910280838360005b8381101561007f578181015183820152602001610067565b505050509050019250505060405180910390f35b610252600480360360808110156100a957600080fd5b8101906020810181356401000000008111156100c457600080fd5b8201836020820111156100d657600080fd5b803590602001918460018302840111640100000000831117156100f857600080fd5b91908080601f016020809104026020016040519081016040528093929190818152602001838380828437600092019190915250929594936020810193503591505064010000000081111561014b57600080fd5b82018360208201111561015d57600080fd5b8035906020019184600183028401116401000000008311171561017f57600080fd5b91908080601f01602080910402602001604051908101604052809392919081815260200183838082843760009201919091525092959493602081019350359150506401000000008111156101d257600080fd5b8201836020820111156101e457600080fd5b8035906020019184600183028401116401000000008311171561020657600080fd5b91908080601f016020809104026020016040519081016040528093929190818152602001838380828437600092019190915250929550505090356001600160a01b031691506102d09050565b604080516001600160a01b039092168252519081900360200190f35b606060008054806020026020016040519081016040528092919081815260200182805480156102c657602002820191906000526020600020905b81546001600160a01b031681526001909101906020018083116102a8575b5050505050905090565b6000848484846040516102e290610497565b6001600160a01b0382166060820152608080825285519082015284518190602080830191604084019160a0850191908a019080838360005b8381101561033257818101518382015260200161031a565b50505050905090810190601f16801561035f5780820380516001836020036101000a031916815260200191505b50848103835287518152875160209182019189019080838360005b8381101561039257818101518382015260200161037a565b50505050905090810190601f1680156103bf5780820380516001836020036101000a031916815260200191505b50848103825286518152865160209182019188019080838360005b838110156103f25781810151838201526020016103da565b50505050905090810190601f16801561041f5780820380516001836020036101000a031916815260200191505b50975050505050505050604051809103906000f080158015610445573d6000803e3d6000fd5b50600080546001810182559080527f290decd9548b62a8d60345a988386fc84ba6bc95484008f6362f93160ef3e5630180546001600160a01b0319166001600160a01b03831617905595945050505050565b610fb5806104a58339019056fe60806040523480156200001157600080fd5b5060405162000fb538038062000fb5833981018060405260808110156200003757600080fd5b8101908080516401000000008111156200005057600080fd5b820160208101848111156200006457600080fd5b81516401000000008111828201871017156200007f57600080fd5b505092919060200180516401000000008111156200009c57600080fd5b82016020810184811115620000b057600080fd5b8151640100000000811182820187101715620000cb57600080fd5b50509291906020018051640100000000811115620000e857600080fd5b82016020810184811115620000fc57600080fd5b81516401000000008111828201871017156200011757600080fd5b5050602091820151600080546001600160a01b031916331790819055604080516001600160a01b039290921682525192955090935083927f4101e71e974f68df5e9730cc223280b41654676bbb052cdcc735c3337e64d2d992918290030190a16001600160a01b038116620001d8576040517f08c379a000000000000000000000000000000000000000000000000000000000815260040180806020018281038252602d81526020018062000f88602d913960400191505060405180910390fd5b6002805460ff196001600160a01b039390931661010002610100600160a81b0319909116179190911690558351620002189060039060208701906200024f565b5082516200022e9060049060208601906200024f565b508151620002449060059060208501906200024f565b5050505050620002f4565b828054600181600116156101000203166002900490600052602060002090601f016020900481019282601f106200029257805160ff1916838001178555620002c2565b82800160010185558215620002c2579182015b82811115620002c2578251825591602001919060010190620002a5565b50620002d0929150620002d4565b5090565b620002f191905b80821115620002d05760008155600101620002db565b90565b610c8480620003046000396000f3fe6080604052600436106100dd5760003560e01c80637284e4161161007f578063c19d93fb11610059578063c19d93fb146102b5578063c6dbdf61146102ee578063e3a9db1a14610303578063f340fa0114610348576100dd565b80637284e416146102765780638c52dc411461028b5780639af6549a146102a0576100dd565b806343d726d6116100bb57806343d726d6146101d2578063516f279e146101e757806351cff8d9146101fc578063685ca1941461022f576100dd565b806306fdde03146100e25780632348238c1461016c57806338af3eed146101a1575b600080fd5b3480156100ee57600080fd5b506100f761036e565b6040805160208082528351818301528351919283929083019185019080838360005b83811015610131578181015183820152602001610119565b50505050905090810190601f16801561015e5780820380516001836020036101000a031916815260200191505b509250505060405180910390f35b34801561017857600080fd5b5061019f6004803603602081101561018f57600080fd5b50356001600160a01b03166103fc565b005b3480156101ad57600080fd5b506101b66104ea565b604080516001600160a01b039092168252519081900360200190f35b3480156101de57600080fd5b5061019f6104fe565b3480156101f357600080fd5b506100f76105d3565b34801561020857600080fd5b5061019f6004803603602081101561021f57600080fd5b50356001600160a01b031661062e565b34801561023b57600080fd5b506102626004803603602081101561025257600080fd5b50356001600160a01b0316610681565b604080519115158252519081900360200190f35b34801561028257600080fd5b506100f761069d565b34801561029757600080fd5b5061019f6106f8565b3480156102ac57600080fd5b5061019f6107ce565b3480156102c157600080fd5b506102ca61085f565b604051808260028111156102da57fe5b60ff16815260200191505060405180910390f35b3480156102fa57600080fd5b506101b6610868565b34801561030f57600080fd5b506103366004803603602081101561032657600080fd5b50356001600160a01b0316610877565b60408051918252519081900360200190f35b61019f6004803603602081101561035e57600080fd5b50356001600160a01b0316610892565b6003805460408051602060026001851615610100026000190190941693909304601f810184900484028201840190925281815292918301828280156103f45780601f106103c9576101008083540402835291602001916103f4565b820191906000526020600020905b8154815290600101906020018083116103d757829003601f168201915b505050505081565b6000546001600160a01b0316331461044857604051600160e51b62461bcd02815260040180806020018281038252602c815260200180610bfb602c913960400191505060405180910390fd5b6001600160a01b03811661049057604051600160e51b62461bcd02815260040180806020018281038252602a815260200180610bd1602a913960400191505060405180910390fd5b600080546001600160a01b0319166001600160a01b03838116919091179182905560408051929091168252517f4101e71e974f68df5e9730cc223280b41654676bbb052cdcc735c3337e64d2d9916020908290030190a150565b60025461010090046001600160a01b031690565b6000546001600160a01b0316331461054a57604051600160e51b62461bcd02815260040180806020018281038252602c815260200180610bfb602c913960400191505060405180910390fd5b60006002805460ff169081111561055d57fe5b1461059c57604051600160e51b62461bcd028152600401808060200182810382526029815260200180610ba86029913960400191505060405180910390fd5b6002805460ff1916811790556040517f088672c3a6e342f7cd94a65ba63b79df24a8973927b4d05d803c44bbf787d12f90600090a1565b6005805460408051602060026001851615610100026000190190941693909304601f810184900484028201840190925281815292918301828280156103f45780601f106103c9576101008083540402835291602001916103f4565b61063781610681565b61067557604051600160e51b62461bcd028152600401808060200182810382526033815260200180610b756033913960400191505060405180910390fd5b61067e816108b0565b50565b600060016002805460ff169081111561069657fe5b1492915050565b6004805460408051602060026001851615610100026000190190941693909304601f810184900484028201840190925281815292918301828280156103f45780601f106103c9576101008083540402835291602001916103f4565b6000546001600160a01b0316331461074457604051600160e51b62461bcd02815260040180806020018281038252602c815260200180610bfb602c913960400191505060405180910390fd5b60006002805460ff169081111561075757fe5b1461079657604051600160e51b62461bcd028152600401808060200182810382526032815260200180610c276032913960400191505060405180910390fd5b6002805460ff191660011790556040517f599d8e5a83cffb867d051598c4d70e805d59802d8081c1c7d6dffc5b6aca2b8990600090a1565b6002805460ff16818111156107df57fe5b1461081e57604051600160e51b62461bcd028152600401808060200182810382526038815260200180610b126038913960400191505060405180910390fd5b6002546040516001600160a01b036101009092049190911690303180156108fc02916000818181858888f1935050505015801561067e573d6000803e3d6000fd5b60025460ff1690565b6000546001600160a01b031690565b6001600160a01b031660009081526001602052604090205490565b33600090815260066020526040902080543401905561067e8161098a565b6000546001600160a01b031633146108fc57604051600160e51b62461bcd02815260040180806020018281038252602c815260200180610bfb602c913960400191505060405180910390fd5b6001600160a01b038116600081815260016020526040808220805490839055905190929183156108fc02918491818181858888f19350505050158015610946573d6000803e3d6000fd5b506040805182815290516001600160a01b038416917f7084f5476618d8e60b11ef0d7d3f06914655adb8793e28ff7f018d4c76d505d5919081900360200190a25050565b60006002805460ff169081111561099d57fe5b146109dc57604051600160e51b62461bcd02815260040180806020018281038252602b815260200180610b4a602b913960400191505060405180910390fd5b61067e816000546001600160a01b03163314610a2c57604051600160e51b62461bcd02815260040180806020018281038252602c815260200180610bfb602c913960400191505060405180910390fd5b6001600160a01b0381166000908152600160205260409020543490610a57908263ffffffff610aad16565b6001600160a01b038316600081815260016020908152604091829020939093558051848152905191927f2da466a7b24304f47e87fa2e1e5a81b9831ce54fec19055ce277ca2f39ba42c492918290030190a25050565b600082820183811015610b0a5760408051600160e51b62461bcd02815260206004820152601b60248201527f536166654d6174683a206164646974696f6e206f766572666c6f770000000000604482015290519081900360640190fd5b939250505056fe526566756e64457363726f773a2062656e65666963696172792063616e206f6e6c79207769746864726177207768696c6520636c6f736564526566756e64457363726f773a2063616e206f6e6c79206465706f736974207768696c6520616374697665436f6e646974696f6e616c457363726f773a207061796565206973206e6f7420616c6c6f77656420746f207769746864726177526566756e64457363726f773a2063616e206f6e6c7920636c6f7365207768696c65206163746976655365636f6e646172793a206e6577207072696d61727920697320746865207a65726f20616464726573735365636f6e646172793a2063616c6c6572206973206e6f7420746865207072696d617279206163636f756e74526566756e64457363726f773a2063616e206f6e6c7920656e61626c6520726566756e6473207768696c6520616374697665a165627a7a723058206324e1e15ecebe8d1cedf86487f73730db7aeca86a007c5ff2223c5f0942bc3b0029526566756e64457363726f773a2062656e656669636961727920697320746865207a65726f2061646472657373a165627a7a72305820cb579fd9c28eebf523d391638b733592028ffb16b3f09a7580b5f56a5f439d730029",
  "source": "pragma solidity ^0.5.0;\n\nimport \"./Disaster.sol\";\n\ncontract Relieth {\n    Disaster[] private disasters;\n\n    function createDisaster(\n        string memory _name,\n        string memory _description,\n        string memory _location,\n        address payable _beneficiary\n    ) public returns (Disaster disaster) {\n        disaster = new Disaster(\n            _name,\n            _description,\n            _location,\n            _beneficiary\n        );\n        disasters.push(disaster);\n    }\n\n    function getDisasters() public view returns (Disaster[] memory) {\n        return disasters;\n    }\n}\n",
  "sourcePath": "/Users/cryptotom/code/ethboston/reliETH/contracts/Relieth.sol",
  "compiler": {
    "name": "solc",
    "version": "0.5.8+commit.23d335f2.Emscripten.clang"
  },
  "schemaVersion": "3.0.11",
  "updatedAt": "2019-09-08T05:32:02.845Z",
  "devdoc": {
    "methods": {}
  },
  "userdoc": {
    "methods": {}
  }
}