{
  "contractName": "Relieth",
  "abi": [
    {
      "constant": false,
      "inputs": [
        {
          "name": "_name",
          "type": "string"
        },
        {
          "name": "_description",
          "type": "string"
        },
        {
          "name": "_location",
          "type": "string"
        },
        {
          "name": "_beneficiary",
          "type": "address"
        }
      ],
      "name": "createDisaster",
      "outputs": [
        {
          "name": "disaster",
          "type": "address"
        }
      ],
      "payable": false,
      "stateMutability": "nonpayable",
      "type": "function"
    }
  ],
  "bytecode": "0x608060405234801561001057600080fd5b50611da9806100206000396000f3fe608060405234801561001057600080fd5b506004361061002b5760003560e01c8063e9a33b8114610030575b600080fd5b6102376004803603608081101561004657600080fd5b810190808035906020019064010000000081111561006357600080fd5b82018360208201111561007557600080fd5b8035906020019184600183028401116401000000008311171561009757600080fd5b91908080601f016020809104026020016040519081016040528093929190818152602001838380828437600081840152601f19601f820116905080830192505050505050509192919290803590602001906401000000008111156100fa57600080fd5b82018360208201111561010c57600080fd5b8035906020019184600183028401116401000000008311171561012e57600080fd5b91908080601f016020809104026020016040519081016040528093929190818152602001838380828437600081840152601f19601f8201169050808301925050505050505091929192908035906020019064010000000081111561019157600080fd5b8201836020820111156101a357600080fd5b803590602001918460018302840111640100000000831117156101c557600080fd5b91908080601f016020809104026020016040519081016040528093929190818152602001838380828437600081840152601f19601f820116905080830192505050505050509192919290803573ffffffffffffffffffffffffffffffffffffffff169060200190929190505050610279565b604051808273ffffffffffffffffffffffffffffffffffffffff1673ffffffffffffffffffffffffffffffffffffffff16815260200191505060405180910390f35b60008484848460405161028b90610492565b808060200180602001806020018573ffffffffffffffffffffffffffffffffffffffff1673ffffffffffffffffffffffffffffffffffffffff168152602001848103845288818151815260200191508051906020019080838360005b838110156103025780820151818401526020810190506102e7565b50505050905090810190601f16801561032f5780820380516001836020036101000a031916815260200191505b50848103835287818151815260200191508051906020019080838360005b8381101561036857808201518184015260208101905061034d565b50505050905090810190601f1680156103955780820380516001836020036101000a031916815260200191505b50848103825286818151815260200191508051906020019080838360005b838110156103ce5780820151818401526020810190506103b3565b50505050905090810190601f1680156103fb5780820380516001836020036101000a031916815260200191505b50975050505050505050604051809103906000f080158015610421573d6000803e3d6000fd5b50905060008190806001815401808255809150509060018203906000526020600020016000909192909190916101000a81548173ffffffffffffffffffffffffffffffffffffffff021916908373ffffffffffffffffffffffffffffffffffffffff16021790555050949350505050565b6118de806104a08339019056fe60806040523480156200001157600080fd5b50604051620018de380380620018de833981018060405260808110156200003757600080fd5b8101908080516401000000008111156200005057600080fd5b828101905060208101848111156200006757600080fd5b81518560018202830111640100000000821117156200008557600080fd5b50509291906020018051640100000000811115620000a257600080fd5b82810190506020810184811115620000b957600080fd5b8151856001820283011164010000000082111715620000d757600080fd5b50509291906020018051640100000000811115620000f457600080fd5b828101905060208101848111156200010b57600080fd5b81518560018202830111640100000000821117156200012957600080fd5b50509291906020018051906020019092919050505080336000806101000a81548173ffffffffffffffffffffffffffffffffffffffff021916908373ffffffffffffffffffffffffffffffffffffffff1602179055507f4101e71e974f68df5e9730cc223280b41654676bbb052cdcc735c3337e64d2d96000809054906101000a900473ffffffffffffffffffffffffffffffffffffffff16604051808273ffffffffffffffffffffffffffffffffffffffff1673ffffffffffffffffffffffffffffffffffffffff16815260200191505060405180910390a1600073ffffffffffffffffffffffffffffffffffffffff168173ffffffffffffffffffffffffffffffffffffffff1614156200028b576040517f08c379a000000000000000000000000000000000000000000000000000000000815260040180806020018281038252602d815260200180620018b1602d913960400191505060405180910390fd5b80600260016101000a81548173ffffffffffffffffffffffffffffffffffffffff021916908373ffffffffffffffffffffffffffffffffffffffff1602179055506000600260006101000a81548160ff02191690836002811115620002ec57fe5b02179055505083600390805190602001906200030a92919062000347565b5082600490805190602001906200032392919062000347565b5081600590805190602001906200033c92919062000347565b5050505050620003f6565b828054600181600116156101000203166002900490600052602060002090601f016020900481019282601f106200038a57805160ff1916838001178555620003bb565b82800160010185558215620003bb579182015b82811115620003ba5782518255916020019190600101906200039d565b5b509050620003ca9190620003ce565b5090565b620003f391905b80821115620003ef576000816000905550600101620003d5565b5090565b90565b6114ab80620004066000396000f3fe6080604052600436106100dd5760003560e01c80637284e4161161007f578063c19d93fb11610059578063c19d93fb14610439578063c6dbdf6114610472578063e3a9db1a146104c9578063f340fa011461052e576100dd565b80637284e4161461037b5780638c52dc411461040b5780639af6549a14610422576100dd565b806343d726d6116100bb57806343d726d61461021a578063516f279e1461023157806351cff8d9146102c1578063685ca19414610312576100dd565b806306fdde03146100e25780632348238c1461017257806338af3eed146101c3575b600080fd5b3480156100ee57600080fd5b506100f7610572565b6040518080602001828103825283818151815260200191508051906020019080838360005b8381101561013757808201518184015260208101905061011c565b50505050905090810190601f1680156101645780820380516001836020036101000a031916815260200191505b509250505060405180910390f35b34801561017e57600080fd5b506101c16004803603602081101561019557600080fd5b81019080803573ffffffffffffffffffffffffffffffffffffffff169060200190929190505050610610565b005b3480156101cf57600080fd5b506101d8610802565b604051808273ffffffffffffffffffffffffffffffffffffffff1673ffffffffffffffffffffffffffffffffffffffff16815260200191505060405180910390f35b34801561022657600080fd5b5061022f61082c565b005b34801561023d57600080fd5b506102466109a0565b6040518080602001828103825283818151815260200191508051906020019080838360005b8381101561028657808201518184015260208101905061026b565b50505050905090810190601f1680156102b35780820380516001836020036101000a031916815260200191505b509250505060405180910390f35b3480156102cd57600080fd5b50610310600480360360208110156102e457600080fd5b81019080803573ffffffffffffffffffffffffffffffffffffffff169060200190929190505050610a3e565b005b34801561031e57600080fd5b506103616004803603602081101561033557600080fd5b81019080803573ffffffffffffffffffffffffffffffffffffffff169060200190929190505050610aa8565b604051808215151515815260200191505060405180910390f35b34801561038757600080fd5b50610390610ada565b6040518080602001828103825283818151815260200191508051906020019080838360005b838110156103d05780820151818401526020810190506103b5565b50505050905090810190601f1680156103fd5780820380516001836020036101000a031916815260200191505b509250505060405180910390f35b34801561041757600080fd5b50610420610b78565b005b34801561042e57600080fd5b50610437610ced565b005b34801561044557600080fd5b5061044e610dec565b6040518082600281111561045e57fe5b60ff16815260200191505060405180910390f35b34801561047e57600080fd5b50610487610e03565b604051808273ffffffffffffffffffffffffffffffffffffffff1673ffffffffffffffffffffffffffffffffffffffff16815260200191505060405180910390f35b3480156104d557600080fd5b50610518600480360360208110156104ec57600080fd5b81019080803573ffffffffffffffffffffffffffffffffffffffff169060200190929190505050610e2c565b6040518082815260200191505060405180910390f35b6105706004803603602081101561054457600080fd5b81019080803573ffffffffffffffffffffffffffffffffffffffff169060200190929190505050610e75565b005b60038054600181600116156101000203166002900480601f0160208091040260200160405190810160405280929190818152602001828054600181600116156101000203166002900480156106085780601f106105dd57610100808354040283529160200191610608565b820191906000526020600020905b8154815290600101906020018083116105eb57829003601f168201915b505050505081565b6000809054906101000a900473ffffffffffffffffffffffffffffffffffffffff1673ffffffffffffffffffffffffffffffffffffffff163373ffffffffffffffffffffffffffffffffffffffff16146106b5576040517f08c379a000000000000000000000000000000000000000000000000000000000815260040180806020018281038252602c815260200180611422602c913960400191505060405180910390fd5b600073ffffffffffffffffffffffffffffffffffffffff168173ffffffffffffffffffffffffffffffffffffffff16141561073b576040517f08c379a000000000000000000000000000000000000000000000000000000000815260040180806020018281038252602a8152602001806113f8602a913960400191505060405180910390fd5b806000806101000a81548173ffffffffffffffffffffffffffffffffffffffff021916908373ffffffffffffffffffffffffffffffffffffffff1602179055507f4101e71e974f68df5e9730cc223280b41654676bbb052cdcc735c3337e64d2d96000809054906101000a900473ffffffffffffffffffffffffffffffffffffffff16604051808273ffffffffffffffffffffffffffffffffffffffff1673ffffffffffffffffffffffffffffffffffffffff16815260200191505060405180910390a150565b6000600260019054906101000a900473ffffffffffffffffffffffffffffffffffffffff16905090565b6000809054906101000a900473ffffffffffffffffffffffffffffffffffffffff1673ffffffffffffffffffffffffffffffffffffffff163373ffffffffffffffffffffffffffffffffffffffff16146108d1576040517f08c379a000000000000000000000000000000000000000000000000000000000815260040180806020018281038252602c815260200180611422602c913960400191505060405180910390fd5b600060028111156108de57fe5b600260009054906101000a900460ff1660028111156108f957fe5b1461094f576040517f08c379a00000000000000000000000000000000000000000000000000000000081526004018080602001828103825260298152602001806113cf6029913960400191505060405180910390fd5b60028060006101000a81548160ff0219169083600281111561096d57fe5b02179055507f088672c3a6e342f7cd94a65ba63b79df24a8973927b4d05d803c44bbf787d12f60405160405180910390a1565b60058054600181600116156101000203166002900480601f016020809104026020016040519081016040528092919081815260200182805460018160011615610100020316600290048015610a365780601f10610a0b57610100808354040283529160200191610a36565b820191906000526020600020905b815481529060010190602001808311610a1957829003601f168201915b505050505081565b610a4781610aa8565b610a9c576040517f08c379a000000000000000000000000000000000000000000000000000000000815260040180806020018281038252603381526020018061139c6033913960400191505060405180910390fd5b610aa581610ece565b50565b600060016002811115610ab757fe5b600260009054906101000a900460ff166002811115610ad257fe5b149050919050565b60048054600181600116156101000203166002900480601f016020809104026020016040519081016040528092919081815260200182805460018160011615610100020316600290048015610b705780601f10610b4557610100808354040283529160200191610b70565b820191906000526020600020905b815481529060010190602001808311610b5357829003601f168201915b505050505081565b6000809054906101000a900473ffffffffffffffffffffffffffffffffffffffff1673ffffffffffffffffffffffffffffffffffffffff163373ffffffffffffffffffffffffffffffffffffffff1614610c1d576040517f08c379a000000000000000000000000000000000000000000000000000000000815260040180806020018281038252602c815260200180611422602c913960400191505060405180910390fd5b60006002811115610c2a57fe5b600260009054906101000a900460ff166002811115610c4557fe5b14610c9b576040517f08c379a000000000000000000000000000000000000000000000000000000000815260040180806020018281038252603281526020018061144e6032913960400191505060405180910390fd5b6001600260006101000a81548160ff02191690836002811115610cba57fe5b02179055507f599d8e5a83cffb867d051598c4d70e805d59802d8081c1c7d6dffc5b6aca2b8960405160405180910390a1565b600280811115610cf957fe5b600260009054906101000a900460ff166002811115610d1457fe5b14610d6a576040517f08c379a00000000000000000000000000000000000000000000000000000000081526004018080602001828103825260388152602001806113396038913960400191505060405180910390fd5b600260019054906101000a900473ffffffffffffffffffffffffffffffffffffffff1673ffffffffffffffffffffffffffffffffffffffff166108fc3073ffffffffffffffffffffffffffffffffffffffff16319081150290604051600060405180830381858888f19350505050158015610de9573d6000803e3d6000fd5b50565b6000600260009054906101000a900460ff16905090565b60008060009054906101000a900473ffffffffffffffffffffffffffffffffffffffff16905090565b6000600160008373ffffffffffffffffffffffffffffffffffffffff1673ffffffffffffffffffffffffffffffffffffffff168152602001908152602001600020549050919050565b34600660003373ffffffffffffffffffffffffffffffffffffffff1673ffffffffffffffffffffffffffffffffffffffff16815260200190815260200160002060008282540192505081905550610ecb81611095565b50565b6000809054906101000a900473ffffffffffffffffffffffffffffffffffffffff1673ffffffffffffffffffffffffffffffffffffffff163373ffffffffffffffffffffffffffffffffffffffff1614610f73576040517f08c379a000000000000000000000000000000000000000000000000000000000815260040180806020018281038252602c815260200180611422602c913960400191505060405180910390fd5b6000600160008373ffffffffffffffffffffffffffffffffffffffff1673ffffffffffffffffffffffffffffffffffffffff1681526020019081526020016000205490506000600160008473ffffffffffffffffffffffffffffffffffffffff1673ffffffffffffffffffffffffffffffffffffffff168152602001908152602001600020819055508173ffffffffffffffffffffffffffffffffffffffff166108fc829081150290604051600060405180830381858888f19350505050158015611042573d6000803e3d6000fd5b508173ffffffffffffffffffffffffffffffffffffffff167f7084f5476618d8e60b11ef0d7d3f06914655adb8793e28ff7f018d4c76d505d5826040518082815260200191505060405180910390a25050565b600060028111156110a257fe5b600260009054906101000a900460ff1660028111156110bd57fe5b14611113576040517f08c379a000000000000000000000000000000000000000000000000000000000815260040180806020018281038252602b815260200180611371602b913960400191505060405180910390fd5b61111c8161111f565b50565b6000809054906101000a900473ffffffffffffffffffffffffffffffffffffffff1673ffffffffffffffffffffffffffffffffffffffff163373ffffffffffffffffffffffffffffffffffffffff16146111c4576040517f08c379a000000000000000000000000000000000000000000000000000000000815260040180806020018281038252602c815260200180611422602c913960400191505060405180910390fd5b600034905061121b81600160008573ffffffffffffffffffffffffffffffffffffffff1673ffffffffffffffffffffffffffffffffffffffff168152602001908152602001600020546112b090919063ffffffff16565b600160008473ffffffffffffffffffffffffffffffffffffffff1673ffffffffffffffffffffffffffffffffffffffff168152602001908152602001600020819055508173ffffffffffffffffffffffffffffffffffffffff167f2da466a7b24304f47e87fa2e1e5a81b9831ce54fec19055ce277ca2f39ba42c4826040518082815260200191505060405180910390a25050565b60008082840190508381101561132e576040517f08c379a000000000000000000000000000000000000000000000000000000000815260040180806020018281038252601b8152602001807f536166654d6174683a206164646974696f6e206f766572666c6f77000000000081525060200191505060405180910390fd5b809150509291505056fe526566756e64457363726f773a2062656e65666963696172792063616e206f6e6c79207769746864726177207768696c6520636c6f736564526566756e64457363726f773a2063616e206f6e6c79206465706f736974207768696c6520616374697665436f6e646974696f6e616c457363726f773a207061796565206973206e6f7420616c6c6f77656420746f207769746864726177526566756e64457363726f773a2063616e206f6e6c7920636c6f7365207768696c65206163746976655365636f6e646172793a206e6577207072696d61727920697320746865207a65726f20616464726573735365636f6e646172793a2063616c6c6572206973206e6f7420746865207072696d617279206163636f756e74526566756e64457363726f773a2063616e206f6e6c7920656e61626c6520726566756e6473207768696c6520616374697665a165627a7a7230582078a0e96a23510a5af1f88b198acb7d04141bc2523081f3559aebd53d2913d3410029526566756e64457363726f773a2062656e656669636961727920697320746865207a65726f2061646472657373a165627a7a72305820f03db9537b8ca11247593e43ee15a2a3955c65a57253602c46051c9d647fafbc0029",
  "source": "pragma solidity ^0.5.0;\n\nimport \"./Disaster.sol\";\n\ncontract Relieth {\n    Disaster[] disasters;\n\n    function createDisaster(\n        string memory _name,\n        string memory _description,\n        string memory _location,\n        address payable _beneficiary\n    ) public returns (Disaster disaster) {\n        disaster = new Disaster(\n            _name,\n            _description,\n            _location,\n            _beneficiary\n        );\n        disasters.push(disaster);\n    }\n}\n",
  "sourcePath": "/Users/cryptotom/code/ethboston/reliETH/contracts/Relieth.sol",
  "compiler": {
    "name": "solc",
    "version": "0.5.8+commit.23d335f2.Emscripten.clang"
  },
  "schemaVersion": "3.0.11",
  "updatedAt": "2019-09-08T02:25:45.221Z",
  "devdoc": {
    "methods": {}
  },
  "userdoc": {
    "methods": {}
  }
}